{"abi":[{"type":"constructor","inputs":[{"name":"owner_","type":"address","internalType":"address"},{"name":"factory_","type":"address","internalType":"address"},{"name":"feeLocker_","type":"address","internalType":"address"},{"name":"positionManager_","type":"address","internalType":"address"},{"name":"permit2_","type":"address","internalType":"address"},{"name":"universalRouter_","type":"address","internalType":"address"},{"name":"poolManager_","type":"address","internalType":"address"}],"stateMutability":"nonpayable"},{"type":"function","name":"BASIS_POINTS","inputs":[],"outputs":[{"name":"","type":"uint256","internalType":"uint256"}],"stateMutability":"view"},{"type":"function","name":"MAX_LP_POSITIONS","inputs":[],"outputs":[{"name":"","type":"uint256","internalType":"uint256"}],"stateMutability":"view"},{"type":"function","name":"MAX_REWARD_PARTICIPANTS","inputs":[],"outputs":[{"name":"","type":"uint256","internalType":"uint256"}],"stateMutability":"view"},{"type":"function","name":"collectRewards","inputs":[{"name":"token","type":"address","internalType":"address"}],"outputs":[],"stateMutability":"nonpayable"},{"type":"function","name":"collectRewardsWithoutUnlock","inputs":[{"name":"token","type":"address","internalType":"address"}],"outputs":[],"stateMutability":"nonpayable"},{"type":"function","name":"factory","inputs":[],"outputs":[{"name":"","type":"address","internalType":"address"}],"stateMutability":"view"},{"type":"function","name":"feeLocker","inputs":[],"outputs":[{"name":"","type":"address","internalType":"contract IClankerFeeLocker"}],"stateMutability":"view"},{"type":"function","name":"feePreferences","inputs":[{"name":"token","type":"address","internalType":"address"},{"name":"","type":"uint256","internalType":"uint256"}],"outputs":[{"name":"feePreference","type":"uint8","internalType":"enum IClankerLpLockerFeeConversion.FeeIn"}],"stateMutability":"view"},{"type":"function","name":"onERC721Received","inputs":[{"name":"","type":"address","internalType":"address"},{"name":"from","type":"address","internalType":"address"},{"name":"id","type":"uint256","internalType":"uint256"},{"name":"","type":"bytes","internalType":"bytes"}],"outputs":[{"name":"","type":"bytes4","internalType":"bytes4"}],"stateMutability":"nonpayable"},{"type":"function","name":"owner","inputs":[],"outputs":[{"name":"","type":"address","internalType":"address"}],"stateMutability":"view"},{"type":"function","name":"permit2","inputs":[],"outputs":[{"name":"","type":"address","internalType":"contract IPermit2"}],"stateMutability":"view"},{"type":"function","name":"placeLiquidity","inputs":[{"name":"lockerConfig","type":"tuple","internalType":"struct IClanker.LockerConfig","components":[{"name":"locker","type":"address","internalType":"address"},{"name":"rewardAdmins","type":"address[]","internalType":"address[]"},{"name":"rewardRecipients","type":"address[]","internalType":"address[]"},{"name":"rewardBps","type":"uint16[]","internalType":"uint16[]"},{"name":"tickLower","type":"int24[]","internalType":"int24[]"},{"name":"tickUpper","type":"int24[]","internalType":"int24[]"},{"name":"positionBps","type":"uint16[]","internalType":"uint16[]"},{"name":"lockerData","type":"bytes","internalType":"bytes"}]},{"name":"poolConfig","type":"tuple","internalType":"struct IClanker.PoolConfig","components":[{"name":"hook","type":"address","internalType":"address"},{"name":"pairedToken","type":"address","internalType":"address"},{"name":"tickIfToken0IsClanker","type":"int24","internalType":"int24"},{"name":"tickSpacing","type":"int24","internalType":"int24"},{"name":"poolData","type":"bytes","internalType":"bytes"}]},{"name":"poolKey","type":"tuple","internalType":"struct PoolKey","components":[{"name":"currency0","type":"address","internalType":"Currency"},{"name":"currency1","type":"address","internalType":"Currency"},{"name":"fee","type":"uint24","internalType":"uint24"},{"name":"tickSpacing","type":"int24","internalType":"int24"},{"name":"hooks","type":"address","internalType":"contract IHooks"}]},{"name":"poolSupply","type":"uint256","internalType":"uint256"},{"name":"token","type":"address","internalType":"address"}],"outputs":[{"name":"positionId","type":"uint256","internalType":"uint256"}],"stateMutability":"nonpayable"},{"type":"function","name":"poolManager","inputs":[],"outputs":[{"name":"","type":"address","internalType":"contract IPoolManager"}],"stateMutability":"view"},{"type":"function","name":"positionManager","inputs":[],"outputs":[{"name":"","type":"address","internalType":"contract IPositionManager"}],"stateMutability":"view"},{"type":"function","name":"renounceOwnership","inputs":[],"outputs":[],"stateMutability":"nonpayable"},{"type":"function","name":"supportsInterface","inputs":[{"name":"interfaceId","type":"bytes4","internalType":"bytes4"}],"outputs":[{"name":"","type":"bool","internalType":"bool"}],"stateMutability":"pure"},{"type":"function","name":"tokenRewards","inputs":[{"name":"token","type":"address","internalType":"address"}],"outputs":[{"name":"","type":"tuple","internalType":"struct IClankerLpLocker.TokenRewardInfo","components":[{"name":"token","type":"address","internalType":"address"},{"name":"poolKey","type":"tuple","internalType":"struct PoolKey","components":[{"name":"currency0","type":"address","internalType":"Currency"},{"name":"currency1","type":"address","internalType":"Currency"},{"name":"fee","type":"uint24","internalType":"uint24"},{"name":"tickSpacing","type":"int24","internalType":"int24"},{"name":"hooks","type":"address","internalType":"contract IHooks"}]},{"name":"positionId","type":"uint256","internalType":"uint256"},{"name":"numPositions","type":"uint256","internalType":"uint256"},{"name":"rewardBps","type":"uint16[]","internalType":"uint16[]"},{"name":"rewardAdmins","type":"address[]","internalType":"address[]"},{"name":"rewardRecipients","type":"address[]","internalType":"address[]"}]}],"stateMutability":"view"},{"type":"function","name":"transferOwnership","inputs":[{"name":"newOwner","type":"address","internalType":"address"}],"outputs":[],"stateMutability":"nonpayable"},{"type":"function","name":"universalRouter","inputs":[],"outputs":[{"name":"","type":"address","internalType":"contract IUniversalRouter"}],"stateMutability":"view"},{"type":"function","name":"updateFeePreference","inputs":[{"name":"token","type":"address","internalType":"address"},{"name":"rewardIndex","type":"uint256","internalType":"uint256"},{"name":"newFeePreference","type":"uint8","internalType":"enum IClankerLpLockerFeeConversion.FeeIn"}],"outputs":[],"stateMutability":"nonpayable"},{"type":"function","name":"updateRewardAdmin","inputs":[{"name":"token","type":"address","internalType":"address"},{"name":"rewardIndex","type":"uint256","internalType":"uint256"},{"name":"newAdmin","type":"address","internalType":"address"}],"outputs":[],"stateMutability":"nonpayable"},{"type":"function","name":"updateRewardRecipient","inputs":[{"name":"token","type":"address","internalType":"address"},{"name":"rewardIndex","type":"uint256","internalType":"uint256"},{"name":"newRecipient","type":"address","internalType":"address"}],"outputs":[],"stateMutability":"nonpayable"},{"type":"function","name":"version","inputs":[],"outputs":[{"name":"","type":"string","internalType":"string"}],"stateMutability":"view"},{"type":"function","name":"withdrawERC20","inputs":[{"name":"token","type":"address","internalType":"address"},{"name":"recipient","type":"address","internalType":"address"}],"outputs":[],"stateMutability":"nonpayable"},{"type":"function","name":"withdrawETH","inputs":[{"name":"recipient","type":"address","internalType":"address"}],"outputs":[],"stateMutability":"nonpayable"},{"type":"event","name":"ClaimedRewards","inputs":[{"name":"token","type":"address","indexed":true,"internalType":"address"},{"name":"amount0","type":"uint256","indexed":false,"internalType":"uint256"},{"name":"amount1","type":"uint256","indexed":false,"internalType":"uint256"},{"name":"rewards0","type":"uint256[]","indexed":false,"internalType":"uint256[]"},{"name":"rewards1","type":"uint256[]","indexed":false,"internalType":"uint256[]"}],"anonymous":false},{"type":"event","name":"FeePreferenceUpdated","inputs":[{"name":"token","type":"address","indexed":true,"internalType":"address"},{"name":"rewardIndex","type":"uint256","indexed":true,"internalType":"uint256"},{"name":"oldFeePreference","type":"uint8","indexed":false,"internalType":"enum IClankerLpLockerFeeConversion.FeeIn"},{"name":"newFeePreference","type":"uint8","indexed":true,"internalType":"enum IClankerLpLockerFeeConversion.FeeIn"}],"anonymous":false},{"type":"event","name":"FeesSwapped","inputs":[{"name":"token","type":"address","indexed":true,"internalType":"address"},{"name":"rewardToken","type":"address","indexed":true,"internalType":"address"},{"name":"amountSwapped","type":"uint256","indexed":false,"internalType":"uint256"},{"name":"swappedToken","type":"address","indexed":true,"internalType":"address"},{"name":"amountOut","type":"uint256","indexed":false,"internalType":"uint256"}],"anonymous":false},{"type":"event","name":"OwnershipTransferred","inputs":[{"name":"previousOwner","type":"address","indexed":true,"internalType":"address"},{"name":"newOwner","type":"address","indexed":true,"internalType":"address"}],"anonymous":false},{"type":"event","name":"Received","inputs":[{"name":"from","type":"address","indexed":true,"internalType":"address"},{"name":"positionId","type":"uint256","indexed":false,"internalType":"uint256"}],"anonymous":false},{"type":"event","name":"RewardAdminUpdated","inputs":[{"name":"token","type":"address","indexed":true,"internalType":"address"},{"name":"rewardIndex","type":"uint256","indexed":true,"internalType":"uint256"},{"name":"oldAdmin","type":"address","indexed":false,"internalType":"address"},{"name":"newAdmin","type":"address","indexed":false,"internalType":"address"}],"anonymous":false},{"type":"event","name":"RewardRecipientUpdated","inputs":[{"name":"token","type":"address","indexed":true,"internalType":"address"},{"name":"rewardIndex","type":"uint256","indexed":true,"internalType":"uint256"},{"name":"oldRecipient","type":"address","indexed":false,"internalType":"address"},{"name":"newRecipient","type":"address","indexed":false,"internalType":"address"}],"anonymous":false},{"type":"event","name":"TokenRewardAdded","inputs":[{"name":"token","type":"address","indexed":false,"internalType":"address"},{"name":"poolKey","type":"tuple","indexed":false,"internalType":"struct PoolKey","components":[{"name":"currency0","type":"address","internalType":"Currency"},{"name":"currency1","type":"address","internalType":"Currency"},{"name":"fee","type":"uint24","internalType":"uint24"},{"name":"tickSpacing","type":"int24","internalType":"int24"},{"name":"hooks","type":"address","internalType":"contract IHooks"}]},{"name":"poolSupply","type":"uint256","indexed":false,"internalType":"uint256"},{"name":"positionId","type":"uint256","indexed":false,"internalType":"uint256"},{"name":"numPositions","type":"uint256","indexed":false,"internalType":"uint256"},{"name":"rewardBps","type":"uint16[]","indexed":false,"internalType":"uint16[]"},{"name":"rewardAdmins","type":"address[]","indexed":false,"internalType":"address[]"},{"name":"rewardRecipients","type":"address[]","indexed":false,"internalType":"address[]"},{"name":"tickLower","type":"int24[]","indexed":false,"internalType":"int24[]"},{"name":"tickUpper","type":"int24[]","indexed":false,"internalType":"int24[]"},{"name":"positionBps","type":"uint16[]","indexed":false,"internalType":"uint16[]"}],"anonymous":false},{"type":"error","name":"InvalidPositionBps","inputs":[]},{"type":"error","name":"InvalidRewardBps","inputs":[]},{"type":"error","name":"MismatchedPositionInfos","inputs":[]},{"type":"error","name":"MismatchedRewardArrays","inputs":[]},{"type":"error","name":"NoPositions","inputs":[]},{"type":"error","name":"NoRewardRecipients","inputs":[]},{"type":"error","name":"OwnableInvalidOwner","inputs":[{"name":"owner","type":"address","internalType":"address"}]},{"type":"error","name":"OwnableUnauthorizedAccount","inputs":[{"name":"account","type":"address","internalType":"address"}]},{"type":"error","name":"ReentrancyGuardReentrantCall","inputs":[]},{"type":"error","name":"SafeERC20FailedOperation","inputs":[{"name":"token","type":"address","internalType":"address"}]},{"type":"error","name":"TickRangeLowerThanStartingTick","inputs":[]},{"type":"error","name":"TicksBackwards","inputs":[]},{"type":"error","name":"TicksNotMultipleOfTickSpacing","inputs":[]},{"type":"error","name":"TicksOutOfTickBounds","inputs":[]},{"type":"error","name":"TokenAlreadyHasRewards","inputs":[]},{"type":"error","name":"TooManyPositions","inputs":[]},{"type":"error","name":"TooManyRewardParticipants","inputs":[]},{"type":"error","name":"Unauthorized","inputs":[]},{"type":"error","name":"ZeroRewardAddress","inputs":[]},{"type":"error","name":"ZeroRewardAmount","inputs":[]}],"bytecode":{"object":"0x6101403461020f57601f61619738819003918201601f19168301916001600160401b038311848410176102135780849260e09460405283398101031261020f5761004881610227565b61005460208301610227565b9161006160408201610227565b61006d60608301610227565b61007960808401610227565b9161009260c061008b60a08701610227565b9501610227565b60015f556001600160a01b039095169586156101fc57600180546001600160a01b03198116891790915560405197906001600160a01b03167f8be0079c531659141344cd1fd0a4f28419497f9722a3daafe3b4186f6b6457e05f80a3610120526001600160a01b0390811660e05290811660805290811660c052908116610100521660a052615f5b908161023c8239608051818181610c9001528181610cfd01528181610d4e01528181610da20152818161199601528181612a29015261334d015260a0518181816115b301526141af015260c051818181610c0f0152818161210e0152614b2c015260e051818181611a35015281816143600152818161440201528181614469015281816145c80152818161462e01528181614d5101528181614da001528181614e0601528181614ef301528181614f410152614fa8015261010051818181611b3e0152614b5f0152610120518181816104690152818161165801526120950152f35b631e4fbdf760e01b5f525f60045260245ffd5b5f80fd5b634e487b7160e01b5f52604160045260245ffd5b51906001600160a01b038216820361020f5756fe6101606040526004361015610012575f80fd5b5f5f3560e01c80630150a9861461219257806301ffc9a71461213d57806312261ee7146120f957806314a7f40314611b24578063150b7a021461202b57806330bd3eeb14611b6d57806335a9e4df14611b2957806352db242f14611b2457806354fd4d5014611add5780635763dbd014611abc578063690d832014611a6457806370e9d24414611a20578063715018a6146119c5578063791b98bc1461198157806386b0c83f1461195e5780638d4637bd146118725780638da5cb5b1461184a578063911573b31461176e5780639456fbcc14611687578063c45a015514611643578063da37c915146115e2578063dc4c90d31461159e578063e1f1c4a714611582578063ea289263146101b95763f2fde38b1461012e575f80fd5b346101b65760203660031901126101b657610147612211565b61014f613969565b6001600160a01b031680156101a257600180546001600160a01b0319811683179091556001600160a01b03167f8be0079c531659141344cd1fd0a4f28419497f9722a3daafe3b4186f6b6457e08380a380f35b631e4fbdf760e01b82526004829052602482fd5b80fd5b50346113f8576101203660031901126113f8576004356001600160401b0381116113f85761010060031982360301126113f8576040519161010083018381106001600160401b03821117611560576040526102168260040161223d565b835260248201356001600160401b0381116113f85761023b906004369185010161240a565b602084015260448201356001600160401b0381116113f857610263906004369185010161240a565b6040840190815260648301356001600160401b0381116113f85761028d906004369186010161246f565b926060850193845260848101356001600160401b0381116113f8576102b890600436918401016124e6565b608086015260a48101356001600160401b0381116113f8576102e090600436918401016124e6565b60a086015260c48101356001600160401b0381116113f857610308906004369184010161246f565b60c086015260e4810135906001600160401b0382116113f8576004610330923692010161254b565b9360e08101948552602435916001600160401b0383116113f85760a060031984360301126113f8576040519261036584612340565b6103718160040161223d565b845261037f6024820161223d565b6020850152610390604482016124d8565b60408501526103a1606482016124d8565b60608501526084810135906001600160401b0382116113f85760046103c9923692010161254b565b608084015260a03660431901126113f857604051916103e783612340565b6044356001600160a01b03811681036113f85783526064356001600160a01b03811681036113f857602084015260843562ffffff811681036113f857604084015260a4358060020b81036113f857606084015260c4356001600160a01b03811681036113f857608084015261010435966001600160a01b03881688036113f8577f00000000000000000000000000000000000000000000000000000000000000006001600160a01b031633036115745761049f613990565b5193845185019260208401956020818603126113f8576020810151906001600160401b0382116113f8570193602090859003126113f85760405193602085018581106001600160401b038211176115605760405260208101516001600160401b0381116113f85760209101019386601f860112156113f857845194610523866123f3565b97610531604051998a61235b565b86895260208901916020839860051b8201019182116113f8579060208a94939201915b81831061153e57505050526001600160a01b0389165f9081526002602052604090206004015461152f5760808301515197519060208401519051916040519961059c8b612325565b60018060a01b038c168b528760208c01525f60408c015260608b01528060808b01528160a08b01528260c08b0152519051811491821592611523575b508115611517575b50611508576007608088015151116114f957608087015151156114ea575f95865b608089015180518910156106705761ffff61061d8a8293612688565b511691160161ffff811161065c579661ffff61063d8260808c0151612688565b51161561064d5760010196610601565b63ea1083a760e01b5f5260045ffd5b634e487b7160e01b5f52601160045260245ffd5b5088959661271061ffff8c9316036114db575f5b6080880151518110156106f15760a08801516001600160a01b03906106aa908390612688565b51161580156106cf575b6106c057600101610684565b63111164f760e21b5f5260045ffd5b5060c08801516001600160a01b03906106e9908390612688565b5116156106b4565b506040516323b872dd60e01b815233600482015230602482015260e435604482015288906020816064815f6001600160a01b0389165af18015611424576114be575b5060808601515160a0870151518114908115916114ae575b5061149f576080860151511561149057600760808701515111611481575f97885b608088015180518b10156108b0578a61078491612688565b5160020b6107968b60a08b0151612688565b5160020b126108a157620d89e7196107b28b60808b0151612688565b5160020b128015610884575b610875576107e56107d38b60808b0151612688565b5160020b606089015160020b906139ae565b60020b15801590610859575b61084a576108038a60808a0151612688565b5160020b604088015160020b1361083b5761083360019161ffff61082b8d60c08d0151612688565b51169061277c565b99019861076c565b635bf462df60e11b5f5260045ffd5b634e3cdd9360e11b5f5260045ffd5b5061086b6107d38b60a08b0151612688565b60020b15156107f1565b63bae2833560e01b5f5260045ffd5b50620d89e86108978b60a08b0151612688565b5160020b136107be565b6365ebf18760e01b5f5260045ffd5b508887966127108a93036114725760208801516080840151516001600160a01b039182169189169190911094906001810190811061065c576108f1906139d4565b96606099865f1461145c576040015160020b935b5f9a5b6080870151518c1015610b7a57602061094760018093836040519485928051918291018385015e8201018260f91b81520301601f19810183528261235b565b9b610a61610aab8b610a9d8c8c8c6001600160801b0361271061097e61ffff6109748c60c0880151612688565b511660e4356126b4565b04918415610b7357825b8515610b6d57505f935b8515610b56576109a68b6080830151612688565b5160020b905b8b8715610b365760a06109c0920151612688565b5160020b905b8615610b2f5780965b15610b275750905b836109e18761594d565b916109f46109ee8561594d565b9161594d565b9281816001600160a01b0380831690821611610b1c575b505060a08f901b8f900384169388906001600160a01b0383168611610ac8575050610a369350615d77565b905b6040519530602088015260208752610a5160408861235b565b6040519a8b9960208b01906122a6565b60020b60c089015260020b60e08801521661010086015261012085015261014084015230610160840152610180808401526101a083019061237c565b03601f19810183528261235b565b610ab5828d612688565b52610ac0818c612688565b50019a610908565b919490939192906001600160a01b0382161115610b10578291610aef91610af59594615d77565b93615d3d565b8084168285161015610b0957505b90610a38565b9050610b03565b915050610b0392615d3d565b925090505f80610a0b565b9050906109d7565b81966109cf565b610b479060a0610b50930151612688565b5160020b613a1d565b906109c6565b610b67610b478c6080840151612688565b906109ac565b93610992565b5f92610988565b60209694955089610bff8a610bb660018f958c6040519d8e928051918291018385015e820101600d60f81b81520301601f1981018c528b61235b565b8051602091820151604080516001600160a01b03938416948101949094529116828201528152610be760608261235b565b60808801515190610bf88285612688565b5282612688565b5060405163095ea7b360e01b81527f00000000000000000000000000000000000000000000000000000000000000006001600160a01b03166004820181905260e435602483015290602081806044810103815f6001600160a01b0389165af180156114245761142f575b50803b156113f8576040516387517c4560e01b81526001600160a01b0384811660048301527f00000000000000000000000000000000000000000000000000000000000000008116602483015260e4351660448201524265ffffffffffff166064820152905f908290608490829084905af180156114245761140f575b50604051631d5e528f60e21b8152976020896004817f00000000000000000000000000000000000000000000000000000000000000006001600160a01b03165afa9889156114045788996113ca575b50610d4c90610a9d60405193849260208401613abb565b7f00000000000000000000000000000000000000000000000000000000000000006001600160a01b03163b156113c65786610d9d916040518093819263dd46508f60e01b8352429060048401613ae3565b0381837f00000000000000000000000000000000000000000000000000000000000000006001600160a01b03165af180156113bb579087916113a2575b505060408481018881526001600160a01b03838116895260026020818152848b20895181549085166001600160a01b0319918216178255828b015180516001840180549188169184169190911790559283015193820180549784015160608086015160b81b62ffffff60b81b1662ffffff60a01b60a09390931b929092169688166001600160d01b0319909a169990991795909517949094179093556080918201516003820180549190951693169290921790925591516004830155918601516005820155908501518051906001600160401b03821161126c57600160401b821161126c57602090600684015483600686015580841061134a575b5001906006830189526020892090895b8160041c811061130a5750600f1981168103806112ba575b5050505060a08501518051906001600160401b03821161126c57600160401b821161126c57602090600784015483600786015580841061129d575b500160078301895260208920895b838110611280575050505060c0850151908151916001600160401b03831161126c57600160401b831161126c5760206008918a8385015486858701558681811061124f575b505050019101885260208820885b83811061123257505050506001600160a01b031685526003602052604085209151906001600160401b03821161121e57600160401b821161121e5782548284558083106111cc575b509185526020852090855b8160051c811061117f5750601f19811681039283611117575b50505050600160a01b600190038151169060208101519260408201519160608101519060808101519060a08101519060c001519160808501519360a08601519560c0015196604051998a998a5260208a0161105f916122a6565b60e43560c08a015260e089015261010088015261012087016101e090526101e0870161108a916126dd565b86810361014088015261109c916122e9565b8581036101608701526110ae916122e9565b8481036101808601526110c091612714565b8381036101a08501526110d291612714565b8281036101c08401526110e4916126dd565b037fc9b03d1b68674b3ca5738b69c14e4dbcfcb7f474303edd540b1d7dfa785d27ff91a160019055604051908152602090f35b869387905b8082106111345750505060051c015584808080611005565b909194855190600382101561116b57611161600192856020939060ff809160031b9316831b921b19161790565b960192019061111c565b634e487b7160e01b8a52602160045260248afd5b86875b60208110611197575083820155600101610fec565b9490815190600382101561116b576111c3600192886020939060ff809160031b9316831b921b19161790565b92019501611182565b6111f79084885260208820601f80860160051c820192818716806111fd575b500160051c01906126c7565b87610fe1565b611218905f198601908154905f199060200360031b1c169055565b8c6111eb565b634e487b7160e01b86526041600452602486fd5b82516001600160a01b031681830155602090920191600101610f99565b846112649387890181522091820191016126c7565b8a8d86610f8b565b634e487b7160e01b89526041600452602489fd5b82516001600160a01b031681830155602090920191600101610f46565b600785018b52828b206112b49181019085016126c7565b8b610f38565b928a938b5b8181106112d75750505060041c015588808080610efd565b909194602061130060019261ffff8951169085851b61ffff809160031b9316831b921b19161790565b96019291016112bf565b8a8b5b60108110611322575083820155600101610ee5565b855190959160019160209161ffff60048a901b81811b199092169216901b179201950161130d565b61137b90600686018c52838c20600f80870160041c820192601e8860011b1680611381575b500160041c01906126c7565b8b610ed5565b61139c905f198601908154905f199060200360031b1c169055565b5f61136f565b816113ac9161235b565b6113b7578588610dda565b8580fd5b6040513d89823e3d90fd5b8680fd5b9098506020813d6020116113fc575b816113e66020938361235b565b810103126113f8575197610d4c610d35565b5f80fd5b3d91506113d9565b6040513d8a823e3d90fd5b61141c9197505f9061235b565b5f9588610ce6565b6040513d5f823e3d90fd5b6114509060203d602011611455575b611448818361235b565b81019061269c565b610c69565b503d61143e565b604061146c91015160020b613a1d565b93610905565b63d255d1bb60e01b5f5260045ffd5b634218d0ad60e11b5f5260045ffd5b63f1efabcb60e01b5f5260045ffd5b633f3ae3b360e21b5f5260045ffd5b905060c08701515114158961074b565b6114d69060203d60201161145557611448818361235b565b610733565b630fe92ddb60e31b5f5260045ffd5b6303e7949960e41b5f5260045ffd5b63dee5eac160e01b5f5260045ffd5b632cf89f5360e21b5f5260045ffd5b9050855114155f6105e0565b5181141591505f6105d8565b63733f8bf560e11b5f5260045ffd5b9091809394505160038110156113f85781528993926020908101929101610554565b634e487b7160e01b5f52604160045260245ffd5b6282b42960e81b5f5260045ffd5b346113f8575f3660031901126113f85760206040516127108152f35b346113f8575f3660031901126113f8576040517f00000000000000000000000000000000000000000000000000000000000000006001600160a01b03168152602090f35b346113f85760403660031901126113f8576115fb612211565b6001600160a01b03165f9081526003602052604090208054602435908110156113f85761162c60ff916020936123a0565b90549060031b1c1661164160405180926123d2565bf35b346113f8575f3660031901126113f8576040517f00000000000000000000000000000000000000000000000000000000000000006001600160a01b03168152602090f35b346113f85760403660031901126113f8576116a0612211565b6116a8612227565b906116b1613969565b6116b9613990565b6040516370a0823160e01b8152306004820152906001600160a01b0316602082602481845afa918215611424575f92611736575b5060405163a9059cbb60e01b60208201526001600160a01b03939093166024840152604480840192909252908252611730919061172b60648361235b565b6158f5565b60015f55005b9291506020833d602011611766575b816117526020938361235b565b810103126113f8579151909161172b6116ed565b3d9150611745565b346113f85761177c36612251565b909160018060a01b031690815f52600260205260405f20906117a184600784016125a0565b905460039190911b1c6001600160a01b031633036115745760087f189a28a3be2ec38788a4a7ff2146b2d9f4f852de2353c9287fed2564845a05d8920161182c82611808876117f081866125a0565b905460039190911b1c6001600160a01b0316946125a0565b81546001600160a01b0393841660039290921b91821b9390911b1916919091179055565b604080516001600160a01b03928316815292909116602083015290a3005b346113f8575f3660031901126113f8576001546040516001600160a01b039091168152602090f35b346113f85760603660031901126113f85761188b612211565b6024356044359160038310156113f8576001600160a01b03165f8181526002602052604090206118bf9083906007016125a0565b905460039190911b1c6001600160a01b0316330361157457805f5260036020527fbdea11477c14b070d2aa993c843410d81a6b8672d5175d1742df11a3c2f9ae25602060ff6119118560405f206123a0565b90549060031b1c16835f52600382528561194c6119318760405f206123a0565b5f9391935083549060ff809160031b9316831b921b19161790565b905561195b60405180926123d2565ba4005b346113f85760203660031901126113f85761197f61197a612211565b6130ed565b005b346113f8575f3660031901126113f8576040517f00000000000000000000000000000000000000000000000000000000000000006001600160a01b03168152602090f35b346113f8575f3660031901126113f8576119dd613969565b600180546001600160a01b031981169091555f906001600160a01b03167f8be0079c531659141344cd1fd0a4f28419497f9722a3daafe3b4186f6b6457e08280a3005b346113f8575f3660031901126113f8576040517f00000000000000000000000000000000000000000000000000000000000000006001600160a01b03168152602090f35b346113f85760203660031901126113f8575f808080611a81612211565b611a89613969565b611a91613990565b479082908215611ab2575b6001600160a01b031690f1156114245760015f55005b6108fc9150611a9c565b346113f85760203660031901126113f85761197f611ad8612211565b6127bc565b346113f8575f3660031901126113f857611b20604051611afe60408261235b565b60018152603160f81b602082015260405191829160208352602083019061237c565b0390f35b61228b565b346113f8575f3660031901126113f8576040517f00000000000000000000000000000000000000000000000000000000000000006001600160a01b03168152602090f35b346113f85760203660031901126113f857611b86612211565b606060c0604051611b9681612325565b5f8152604051611ba581612340565b5f81525f60208201525f60408201525f848201525f608082015260208201525f60408201525f838201528260808201528260a0820152015260018060a01b03165f52600260205260405f2060405190611bfd82612325565b80546001600160a01b03168252611c16600182016125b5565b9160208101928352600482015491604082019283526005810154606083019081526006820190604051808360208295549384815201905f5260205f20925f905b80600f830110611f4357611cf9945491818110611f2e575b818110611f16575b818110611eff575b818110611ee7575b818110611ecf575b818110611eb7575b818110611e9f575b818110611e87575b818110611e6f575b818110611e57575b818110611e3f575b818110611e27575b818110611e0f575b818110611df7575b818110611ddf575b10611dd1575b5093611d51989796959493929193038361235b565b60808401918252611d1f6008611d1160078601612608565b9460a0870195865201612608565b9460c085019586526040519788976020895261018089019660018060a01b0390511660208a01525160408901906122a6565b5160e0870152516101008601525191610160610120860152825180915260206101a086019301905f5b818110611db457505050611b209291611da09151601f19868303016101408701526122e9565b9051838203601f19016101608501526122e9565b825161ffff16855287965060209485019490920191600101611d7a565b60f01c815260200189611ce4565b92602060019161ffff8560e01c168152019301611cde565b92602060019161ffff8560d01c168152019301611cd6565b92602060019161ffff8560c01c168152019301611cce565b92602060019161ffff8560b01c168152019301611cc6565b92602060019161ffff8560a01c168152019301611cbe565b92602060019161ffff8560901c168152019301611cb6565b92602060019161ffff8560801c168152019301611cae565b92602060019161ffff8560701c168152019301611ca6565b92602060019161ffff8560601c168152019301611c9e565b92602060019161ffff8560501c168152019301611c96565b92602060019161ffff8560401c168152019301611c8e565b92602060019161ffff8560301c168152019301611c86565b92602060019161ffff85831c168152019301611c7e565b92602060019161ffff8560101c168152019301611c76565b92602060019161ffff85168152019301611c6e565b916010919350610200600191865461ffff8116825261ffff81861c16602083015261ffff8160201c16604083015261ffff8160301c16606083015261ffff8160401c16608083015261ffff8160501c1660a083015261ffff8160601c1660c083015261ffff8160701c1660e083015261ffff8160801c1661010083015261ffff8160901c1661012083015261ffff8160a01c1661014083015261ffff8160b01c1661016083015261ffff8160c01c1661018083015261ffff8160d01c166101a083015261ffff8160e01c166101c083015260f01c6101e0820152019401920185929391611c56565b346113f85760803660031901126113f857612044612211565b5061204d612227565b6064356001600160401b0381116113f857366023820112156113f85780600401356001600160401b0381116113f857369101602401116113f8576001600160a01b03908116907f0000000000000000000000000000000000000000000000000000000000000000168103611574577f88a5966d370b9919b20f3e2c13ff65706f196a4e32cc2c12bf57088f8852587460206040516044358152a2604051630a85bd0160e11b8152602090f35b346113f8575f3660031901126113f8576040517f00000000000000000000000000000000000000000000000000000000000000006001600160a01b03168152602090f35b346113f85760203660031901126113f85760043563ffffffff60e01b81168091036113f857602090630a85bd0160e11b8114908115612182575b506040519015158152f35b622ae5db60e61b14905082612177565b346113f8576121a036612251565b909160018060a01b031690815f526002602052600760405f2001906121c584836125a0565b905460039190911b1c6001600160a01b03163303611574578161182c82611808876117f0817f2aad5ba8634f3d476ba298c3c089253d053106f0dd2caac6bae480ed9db420bf986125a0565b600435906001600160a01b03821682036113f857565b602435906001600160a01b03821682036113f857565b35906001600160a01b03821682036113f857565b60609060031901126113f8576004356001600160a01b03811681036113f85790602435906044356001600160a01b03811681036113f85790565b346113f8575f3660031901126113f857602060405160078152f35b80516001600160a01b03908116835260208083015182169084015260408083015162ffffff169084015260608083015160020b9084015260809182015116910152565b90602080835192838152019201905f5b8181106123065750505090565b82516001600160a01b03168452602093840193909201916001016122f9565b60e081019081106001600160401b0382111761156057604052565b60a081019081106001600160401b0382111761156057604052565b90601f801991011681019081106001600160401b0382111761156057604052565b805180835260209291819084018484015e5f828201840152601f01601f1916010190565b91909180548310156123be575f52601f60205f208360051c01921690565b634e487b7160e01b5f52603260045260245ffd5b9060038210156123df5752565b634e487b7160e01b5f52602160045260245ffd5b6001600160401b0381116115605760051b60200190565b9080601f830112156113f8578135612421816123f3565b9261242f604051948561235b565b81845260208085019260051b8201019283116113f857602001905b8282106124575750505090565b602080916124648461223d565b81520191019061244a565b9080601f830112156113f857813590612487826123f3565b92612495604051948561235b565b82845260208085019360051b8201019182116113f857602001915b8183106124bd5750505090565b823561ffff811681036113f8578152602092830192016124b0565b35908160020b82036113f857565b9080601f830112156113f85781356124fd816123f3565b9261250b604051948561235b565b81845260208085019260051b8201019283116113f857602001905b8282106125335750505090565b60208091612540846124d8565b815201910190612526565b81601f820112156113f8578035906001600160401b038211611560576040519261257f601f8401601f19166020018561235b565b828452602083830101116113f857815f926020809301838601378301015290565b80548210156123be575f5260205f2001905f90565b906040516125c281612340565b82546001600160a01b0390811682526001840154808216602084015260a081901c62ffffff16604084015260b81c600290810b6060840152909301549092166080830152565b90604051918281549182825260208201905f5260205f20925f5b8181106126395750506126379250038361235b565b565b84546001600160a01b0316835260019485019487945060209093019201612622565b8051156123be5760200190565b8051600110156123be5760400190565b8051600210156123be5760600190565b80518210156123be5760209160051b010190565b908160209103126113f8575180151581036113f85790565b8181029291811591840414171561065c57565b8181106126d2575050565b5f81556001016126c7565b90602080835192838152019201905f5b8181106126fa5750505090565b825161ffff168452602093840193909201916001016126ed565b90602080835192838152019201905f5b8181106127315750505090565b825160020b845260209384019390920191600101612724565b90612754826123f3565b612761604051918261235b565b8281528092612772601f19916123f3565b0190602036910137565b9190820180921161065c57565b90602080835192838152019201905f5b8181106127a65750505090565b8251845260209384019390920191600101612799565b60015460ff8160a01c166130e9576127d382613aff565b6130e95760ff60a01b1916600160a01b176001556001600160a01b0381165f9081526002602052604090819020905161280b81612325565b81546001600160a01b03168152612824600183016125b5565b92602082019384526004830154916040810192835260058401549260608201938452600685019460405180968791602082549182815201915f5260205f20905f915b81600f8401106130015792612906926008959261292497955491818110612fec575b818110612fd4575b818110612fbd575b818110612fa5575b818110612f8d575b818110612f75575b818110612f5d575b818110612f45575b818110612f2d575b818110612f15575b818110612efd575b818110612ee5575b818110612ecd575b818110612eb5575b818110612e9d575b10612e8f575b50038961235b565b6080850197885261291960078201612608565b60a086015201612608565b60c08301528551905193516060906001810180821161065c57612946906139d4565b955f905b828210612e085750508251602093840151604051946001600160a01b039283169491909216926129ca929091612995918791612987918301613a49565b03601f19810187528661235b565b604051846020820152836040820152306060820152606081526129b960808261235b565b6129c3828a612688565b5287612688565b506040516370a0823160e01b815230600482015291602083602481845afa928315611424575f93612dd4575b506040516370a0823160e01b815230600482015293602085602481865afa948515611424575f95612da0575b50604051977f00000000000000000000000000000000000000000000000000000000000000006001600160a01b031691612a74918a91612a66919060208401613abb565b03601f1981018a528961235b565b803b156113f85760405163dd46508f60e01b8152975f918991829084908290612aa290429060048401613ae3565b03925af190811561142457602497602092612d90575b506040516370a0823160e01b815230600482015297889182905afa958615611424575f96612d5b575b50946020602496604051978880926370a0823160e01b82523060048301525afa958615611424575f96612d1f575b50612b249291612b1e91613c9a565b94613c9a565b945180516020909101518551516001600160a01b0391821697919092169591612b4c9061274a565b96612b5883515161274a565b945f965f9881612c94575b505082612bd0575b505050505f516020615f3b5f395f51905f52939291612bbd612bcb9260ff60a01b196001541660015560018060a01b039051169660405195869586526020860152608060408601526080850190612789565b908382036060850152612789565b0390a2565b915f91612be3939a97989694999a613cb5565b9490925f965b885151881015612c6e57612c65612c5a6001928c612c258c612c1f612c0e828d612688565b51612c198386612688565b5161277c565b92612688565b52612c3e612c338c8c612688565b51612c198d8a612688565b612c488c89612688565b52612c538b89612688565b519061277c565b96612c538a8a612688565b97019694612be9565b91989750939550935091905081612bbd612bcb5f516020615f3b5f395f51905f52612b6b565b612caa915f91849b9d969c979499989599613cb5565b9990965f985b8351518a1015612d0b57612d018c9d612c538c809e9f9d6001958f8f928f938f94612cf583612c1f612c0e82612c5398612cfb9b612cf583612c1f612c0e828d612688565b52612688565b9d612688565b9c9b9a0198612cb0565b985092959650929997909398505f80612b63565b9095506020929192813d602011612d53575b81612d3e6020938361235b565b810103126113f8575194909190612b24612b0f565b3d9150612d31565b95506020863d602011612d88575b81612d766020938361235b565b810103126113f8579451946020612ae1565b3d9150612d69565b5f612d9a9161235b565b5f612ab8565b9094506020813d602011612dcc575b81612dbc6020938361235b565b810103126113f85751935f612a22565b3d9150612daf565b9092506020813d602011612e00575b81612df06020938361235b565b810103126113f85751915f6129f6565b3d9150612de3565b9092610a9d612e2260019260405192839160208301613a30565b93612e2d818461277c565b612e72604051915f8352612e4260208461235b565b610a9d60405193849260208401525f60408401525f60608401525f608084015260a08084015260c083019061237c565b612e7c828b612688565b52612e87818a612688565b50019061294a565b60f01c81526020015f6128fe565b92602060019161ffff8560e01c1681520193016128f8565b92602060019161ffff8560d01c1681520193016128f0565b92602060019161ffff8560c01c1681520193016128e8565b92602060019161ffff8560b01c1681520193016128e0565b92602060019161ffff8560a01c1681520193016128d8565b92602060019161ffff8560901c1681520193016128d0565b92602060019161ffff8560801c1681520193016128c8565b92602060019161ffff8560701c1681520193016128c0565b92602060019161ffff8560601c1681520193016128b8565b92602060019161ffff8560501c1681520193016128b0565b92602060019161ffff8560401c1681520193016128a8565b92602060019161ffff8560301c1681520193016128a0565b92602060019161ffff85831c168152019301612898565b92602060019161ffff8560101c168152019301612890565b92602060019161ffff85168152019301612888565b935090916001610200601092865461ffff8116825261ffff81861c16602083015261ffff8160201c16604083015261ffff8160301c16606083015261ffff8160401c16608083015261ffff8160501c1660a083015261ffff8160601c1660c083015261ffff8160701c1660e083015261ffff8160801c1661010083015261ffff8160901c1661012083015261ffff8160a01c1661014083015261ffff8160b01c1661016083015261ffff8160c01c1661018083015261ffff8160d01c166101a083015261ffff8160e01c166101c083015260f01c6101e0820152019401920190899392612866565b5050565b6001545f9060ff8160a01c166139645761310683613aff565b6139645760ff60a01b1916600160a01b176001556001600160a01b0382165f908152600260205260409081902090519290919061314284612325565b82546001600160a01b0316845261315b600184016125b5565b936020810194855260048401549360408201948552600581015460608301908152600682019160405180938491602082549182815201915f5260205f20905f915b81600f84011061387c579261323c926008959261325a97955491818110613867575b81811061384f575b818110613838575b818110613820575b818110613808575b8181106137f0575b8181106137d8575b8181106137c0575b8181106137a8575b818110613790575b818110613778575b818110613760575b818110613748575b818110613730575b818110613718575b1061370a575b50038661235b565b6080860194855261324f60078201612608565b60a087015201612608565b60c08401528651955190516060906001810180821161065c5761327c906139d4565b925f905b8282106136b3575050906132f261298793926132bd60018060a01b038b51169a602060018060a01b03910151169360405196879160208301613a49565b6040518a6020820152836040820152306060820152606081526132e160808261235b565b6132eb8286612688565b5283612688565b506040516370a0823160e01b8152306004820152916020836024818c5afa928315611424575f9361367f575b506040516370a0823160e01b815230600482015293602085602481865afa948515611424575f9561364b575b507f00000000000000000000000000000000000000000000000000000000000000006001600160a01b031691823b156113f8576133a0925f92836040518096819582946312bf8e4f60e21b845260048401613abb565b03925af1801561142457613633575b50602060249798604051988980926370a0823160e01b82523060048301525afa9687156114045788976135fe575b50956020602497604051988980926370a0823160e01b82523060048301525afa9687156114045788976135c2575b50613420929161341a91613c9a565b95613c9a565b955180516020909101518251516001600160a01b03918216989190921696916134489061274a565b9761345484515161274a565b95839784998161352e575b5050826134be575b50506001805460ff60a01b191690555050905160408051948552602085019590955260809484018590526001600160a01b0316945f516020615f3b5f395f51905f52948493612bcb935091612bbd91850190612789565b916001916134d4939b9496989997959a9b613cb5565b959093965b885151881015613507576134fe612c5a6001928c612c258c612c1f612c0e828d612688565b970196946134d9565b91989750939550935091905081612bbd612bcb5f516020615f3b5f395f51905f525f613467565b61354691600191849d9997959e9896949c9b9c613cb5565b9b9098839a5b8551518c10156135ae5761359c89989796959493928f9c9b9a8e6135968f958f8f818591612cf583612c1f612c0e8260019f612c539d612cf583612c1f612c0e82612c539f612688565b9e612688565b9b019a9091929394959697989961354c565b99509950919395999092949a505f8061345f565b9096506020929192813d6020116135f6575b816135e16020938361235b565b810103126113f857519590919061342061340b565b3d91506135d4565b96506020873d60201161362b575b816136196020938361235b565b810103126113f85795519560206133dd565b3d915061360c565b602497505f6136419161235b565b60205f97506133af565b9094506020813d602011613677575b816136676020938361235b565b810103126113f85751935f61334a565b3d915061365a565b9092506020813d6020116136ab575b8161369b6020938361235b565b810103126113f85751915f61331e565b3d915061368e565b9092610a9d6136cd60019260405192839160208301613a30565b936136d8818461277c565b6136ed604051915f8352612e4260208461235b565b6136f78288612688565b526137028187612688565b500190613280565b60f01c81526020015f613234565b92602060019161ffff8560e01c16815201930161322e565b92602060019161ffff8560d01c168152019301613226565b92602060019161ffff8560c01c16815201930161321e565b92602060019161ffff8560b01c168152019301613216565b92602060019161ffff8560a01c16815201930161320e565b92602060019161ffff8560901c168152019301613206565b92602060019161ffff8560801c1681520193016131fe565b92602060019161ffff8560701c1681520193016131f6565b92602060019161ffff8560601c1681520193016131ee565b92602060019161ffff8560501c1681520193016131e6565b92602060019161ffff8560401c1681520193016131de565b92602060019161ffff8560301c1681520193016131d6565b92602060019161ffff85831c1681520193016131ce565b92602060019161ffff8560101c1681520193016131c6565b92602060019161ffff851681520193016131be565b935090916001610200601092865461ffff8116825261ffff81861c16602083015261ffff8160201c16604083015261ffff8160301c16606083015261ffff8160401c16608083015261ffff8160501c1660a083015261ffff8160601c1660c083015261ffff8160701c1660e083015261ffff8160801c1661010083015261ffff8160901c1661012083015261ffff8160a01c1661014083015261ffff8160b01c1661016083015261ffff8160c01c1661018083015261ffff8160d01c166101a083015261ffff8160e01c166101c083015260f01c6101e082015201940192019086939261319c565b505050565b6001546001600160a01b0316330361397d57565b63118cdaa760e01b5f523360045260245ffd5b60025f541461399f5760025f55565b633ee5aeb560e01b5f5260045ffd5b9060020b9081156139c05760020b0790565b634e487b7160e01b5f52601260045260245ffd5b906139de826123f3565b6139eb604051918261235b565b82815280926139fc601f19916123f3565b01905f5b828110613a0c57505050565b806060602080938501015201613a00565b60020b627fffff19811461065c575f0390565b602090600192805192839101825e018160f81b81520190565b602090600192805192839101825e01601160f81b81520190565b9080602083519182815201916020808360051b8301019401925f915b838310613a8e57505050505090565b9091929394602080613aac600193601f19868203018752895161237c565b97019301930191939290613a7f565b9091613ad2613ae09360408452604084019061237c565b916020818403910152613a63565b90565b929190613afa60209160408652604086019061237c565b930152565b6001600160a01b03165f81815260026020526040902060a090613b24906001016125b5565b2090805f5260026020526024602060018060a01b03600360405f2001541660405192838092632b887e0f60e01b82528760048301525afa908115611424575f91613c7b575b5015613c7557805f526002602052602060018060a01b03600360405f200154169260246040518095819363ee4d96cf60e01b835260048301525afa908115611424575f91613c40575b600492505f526002602052602060018060a01b03600360405f200154166040519384809263ccc8dc4360e01b82525afa908115611424575f91613c0a575b613bfa925061277c565b421015613c0657600190565b5f90565b90506020823d602011613c38575b81613c256020938361235b565b810103126113f857613bfa915190613bf0565b3d9150613c18565b90506020823d602011613c6d575b81613c5b6020938361235b565b810103126113f8576004915190613bb2565b3d9150613c4e565b50505f90565b613c94915060203d60201161145557611448818361235b565b5f613b69565b9190820391821161065c57565b5f19811461065c5760010190565b909392916101205260018060a01b0381165f52600260205260405f209260405193613cdf85612325565b80546001600160a01b03168552613cf8600182016125b5565b60208601526004810154604086015260058101546060860152600681016040519081602082549182815201915f5260205f20905f915b81600f8401106158135793613deb95938193613dcf9360089754918181106157fe575b8181106157e6575b8181106157cf575b8181106157b7575b81811061579f575b818110615787575b81811061576f575b818110615757575b81811061573f575b818110615727575b81811061570f575b8181106156f7575b8181106156df575b8181106156c7575b8181106156af575b106156a1575b50038261235b565b6080880152613de060078201612608565b60a088015201612608565b60c0850152613dfe60808501515161274a565b608052613e0f60808501515161274a565b5f61014052906001600160a01b03838116908716148015615696576001610140525b1561569057602085015180516001600160a01b0390811690851681036156895750602001516001600160a01b03165b925b60018060a01b036020870151511660018060a01b0388161460018060a01b0382165f52600360205260405f2094604051808760208299549384815201905f5260205f20925f905b80601f83011061540057613fbf9454918181106153e5575b8181106153c7575b8181106153a9575b81811061538b575b81811061536e575b818110615350575b818110615332575b818110615314575b8181106152f6575b8181106152d8575b8181106152ba575b81811061529c575b81811061527e575b818110615260575b818110615242575b818110615224575b818110615206575b8181106151e8575b8181106151ca575b8181106151ac575b81811061518e575b818110615170575b818110615152575b818110615134575b818110615116575b8181106150f8575b8181106150da575b8181106150bc575b81811061509e575b818110615080575b818110615062575b1061504b575b50038761235b565b61012051915f60a052613fd2875161274a565b99613fdd885161274a565b610100525f60e0525f985f60c0525b885160c05110156140955761400360c0518a612688565b5160038110156123df5760036101405110156123df5761014051036140745761404361ffff6140398d608060c051910151612688565b511660a05161277c565b60a05260c0516140568d60e05190612688565b5261406260e051613ca7565b60e0525b600160c0510160c052613fec565b9861408f9060c0516140898261010051612688565b52613ca7565b98614066565b919599939750919599939760e051155f14615046575f19810190811161065c575b5f5b818110614eae575060e0511580614ea5575b614d43575b5060e0516140e7575b50505050505050506080519190565b5f9997999891929394959698505f146149255760208301516001600160801b038916600f81900b906001600160a01b03898116919086168211600160ff1b841461065c57801561490a576401000276a4945b60405191606083018381106001600160401b0382111761156057604052825260208201945f038552604082019560018060a01b03168652604051946370a0823160e01b8652306004870152602086602481885afa958615611424575f966148d5575b5060209161422e6141fd9260018060a01b037f00000000000000000000000000000000000000000000000000000000000000001699604051915f83526141e1878461235b565b604051633cf3645360e21b8152978896879660048801906122a6565b51151560a48601525160c4850152516001600160a01b031660e484015261012061010484015261012483019061237c565b03815f895af1908115611424575f916148a3575b508060801d5f81600f0b125f1461489b5750600f0b905b843b156113f857604051632961046560e21b81526001600160a01b03881660048201525f81602481838a5af180156114245761488b575b506001600160a01b0387166147d0575f80808093885af115614774575b604051630476982d60e21b81526020816004815f895af1801561142457614745575b50833b156113f8576001600160801b0360645f92836040519788948593630b0d9c0960e01b85528860048601523060248601521660448401525af190811561142457602493602092614735575b506040516370a0823160e01b815230600482015293849182905afa8015611424575f90614701575b61434e9250613c9a565b915b5f99614389846001600160a01b037f00000000000000000000000000000000000000000000000000000000000000008116908b16615c7a565b5f9a5b60e0515f19810190811161065c578c1015614523576127106143cd8661ffff8f8b6143bf6143c69260808e015192612688565b5190612688565b51166126b4565b0490811561451957816143df9161277c565b60c0870151909c906001600160a01b03906143fe906143bf848c612688565b51167f00000000000000000000000000000000000000000000000000000000000000006001600160a01b03163b156113f857604051632111be1b60e11b81526001600160a01b039182166004820152908b16602482015260448101839052915f8380606481010381837f00000000000000000000000000000000000000000000000000000000000000006001600160a01b03165af1908115611424576001938d92614509575b50828a8c156144d95791612c196144c16144c9936144d095612688565b518095612688565b918d612688565b525b019a61438c565b6145039293506144fa916144ec91612688565b5192612c1984608051612688565b91608051612688565b526144d2565b5f6145139161235b565b5f6144a4565b9b600191506144d2565b61453991989592999b5099969395929986613c9a565b9081614595575b505060408051958652602086019490945250506001600160a01b039081169481169316917f23343a6790738af38828776c97bce0b0e588477ee38355a02b38253108703d9b9190a45f808080808080806140d8565b60c0015160e0515f19810196939594908711918261065c576001600160a01b03906145c4906143bf8a8a612688565b51167f00000000000000000000000000000000000000000000000000000000000000006001600160a01b03163b156113f857604051632111be1b60e11b81526001600160a01b0391821660048201529086166024820152604481018490525f8180606481010381837f00000000000000000000000000000000000000000000000000000000000000006001600160a01b03165af18015611424576146f1575b50156146b75761065c576146ac6146a58b92612c196144c17f23343a6790738af38828776c97bce0b0e588477ee38355a02b38253108703d9b99604099612688565b918b612688565b525b9281925f614540565b506146eb6144fa6144ec7f23343a6790738af38828776c97bce0b0e588477ee38355a02b38253108703d9b97604097612688565b526146ae565b5f6146fb9161235b565b5f614663565b506020823d60201161472d575b8161471b6020938361235b565b810103126113f85761434e9151614344565b3d915061470e565b5f61473f9161235b565b5f61431c565b6020813d60201161476c575b8161475e6020938361235b565b810103126113f857516142cf565b3d9150614751565b83601f19601f3d0116604051916390bfb86560e01b835260048301525f6024830152608060448301528060a00160648301523d60848301523d5f60a484013e808201600460a482015260c4633d2cec6f60e21b91015260e40190fd5b6040805163a9059cbb60e01b81526004810187905260248101929092525f90602082604485826001600160a01b038e165af13d15601f3d1160018551141617169282815282602082015201526142ad576040516390bfb86560e01b81526001600160a01b038716600482015263a9059cbb60e01b602482015260806044820152601f3d01601f191660a0810160648301523d60848301523d5f60a484013e808201600460a482015260c4633c9fd93960e21b91015260e40190fd5b5f6148959161235b565b5f614290565b905090614259565b90506020813d6020116148cd575b816148be6020938361235b565b810103126113f857515f614242565b3d91506148b1565b9095506020813d602011614902575b816148f16020938361235b565b810103126113f8575194602061419b565b3d91506148e4565b73fffd8963efd1fc6a506488495d951d5263988d2594614139565b60208301516001600160801b0389169060405190600160fc1b60208301526001825261495260218361235b565b604051600360f91b6020820152600360fa1b6021820152600f60f81b6022820152600381529161498360238461235b565b604051906080614993818461235b565b60038352601f19015f5b818110614d3257505060018060a01b038b1691602093614a4f85610a9d6040516149c7838261235b565b5f8152604051946149d786612340565b85526001600160801b038d898588019160018060a01b0316108152818d6040890190815260608901925f845260808a01958652614a226040519a898c9a8b015260408a0190516122a6565b51151560e0880152511661010086015251166101208401525161012061014084015261016083019061237c565b614a588261265b565b52614a628161265b565b50604080516001600160a01b038a16868201908152602081018990529091614a8c91839101610a9d565b614a9582612668565b52614a9f81612668565b5060405183858201526001604082015260408152614abe60608261235b565b614ac782612678565b52614ad181612678565b506040519460208501614ae4818861235b565b60018752601f1901855f5b828110614d2257505050614b0e90610a9d604051938492888401613abb565b614b178561265b565b52614b218461265b565b506001600160a01b037f0000000000000000000000000000000000000000000000000000000000000000811690614b5d90879083908b16615c7a565b7f00000000000000000000000000000000000000000000000000000000000000006001600160a01b031695813b156113f8575f9060848a8360405195869485936387517c4560e01b855260018060a01b031660048501528c6024850152604484015265ffffffffffff421660648401525af1801561142457614d12575b506040516370a0823160e01b8152306004820152938385602481865afa948515611424575f95614ce3575b50853b156113f857614c4e95614c3c5f8094604051998a9586948593630d64d59360e21b855260606004860152606485019061237c565b83810360031901602485015290613a63565b42604483015203925af1908115611424576024948392614cd3575b506040516370a0823160e01b815230600482015294859182905afa908115611424575f91614ca3575b50614c9d9250613c9a565b91614350565b905082813d8311614ccc575b614cb9818361235b565b810103126113f857614c9d91515f614c92565b503d614caf565b5f614cdd9161235b565b5f614c69565b9094508381813d8311614d0b575b614cfb818361235b565b810103126113f85751935f614c05565b503d614cf1565b5f614d1c9161235b565b5f614bda565b606082828b010152018690614aef565b80606060208093870101520161499d565b614d7a886001600160a01b037f00000000000000000000000000000000000000000000000000000000000000008116908616615c7a565b60c0840151610100516001600160a01b0391614d9b916143bf908590612688565b5116907f00000000000000000000000000000000000000000000000000000000000000006001600160a01b03163b156113f857604051632111be1b60e11b81526001600160a01b0392831660048201529184166024830152604482018990525f8280606481010381837f00000000000000000000000000000000000000000000000000000000000000006001600160a01b03165af1918215611424578c92614e95575b50888715614e715750614e55915061010051612688565b51614e696144fa89612c1984608051612688565b525b5f6140cf565b614e8890612c196144c1614e8f9461010051612688565b918c612688565b52614e6b565b5f614e9f9161235b565b5f614e3e565b508715156140ca565b97612710614ed28a61ffff6143c660808a01516143bf610120519461010051612688565b0490811561503c5781614ee491613c9a565b98614f1c826001600160a01b037f00000000000000000000000000000000000000000000000000000000000000008116908816615c7a565b60c0860151610100516001600160a01b0391614f3d916143bf908590612688565b51167f00000000000000000000000000000000000000000000000000000000000000006001600160a01b03163b156113f857604051632111be1b60e11b81526001600160a01b039182166004820152908616602482015260448101839052915f8380606481010381837f00000000000000000000000000000000000000000000000000000000000000006001600160a01b03165af19283156114245760019361502c575b508d89156150055750614ffd6144fa6144ec8461010051612688565b525b016140b8565b9061502690612c1f61501a8561010051612688565b5191612c198386612688565b52614fff565b5f6150369161235b565b5f614fe1565b9860019150614fff565b6140b6565b9061505b8160209360f81c6123d2565b015f613fb7565b9260208161507860019360ff8760f01c166123d2565b019301613fb1565b9260208161509660019360ff8760e81c166123d2565b019301613fa9565b926020816150b460019360ff8760e01c166123d2565b019301613fa1565b926020816150d260019360ff8760d81c166123d2565b019301613f99565b926020816150f060019360ff8760d01c166123d2565b019301613f91565b9260208161510e60019360ff8760c81c166123d2565b019301613f89565b9260208161512c60019360ff8760c01c166123d2565b019301613f81565b9260208161514a60019360ff8760b81c166123d2565b019301613f79565b9260208161516860019360ff8760b01c166123d2565b019301613f71565b9260208161518660019360ff8760a81c166123d2565b019301613f69565b926020816151a460019360ff8760a01c166123d2565b019301613f61565b926020816151c260019360ff8760981c166123d2565b019301613f59565b926020816151e060019360ff8760901c166123d2565b019301613f51565b926020816151fe60019360ff8760881c166123d2565b019301613f49565b9260208161521c60019360ff8760801c166123d2565b019301613f41565b9260208161523a60019360ff8760781c166123d2565b019301613f39565b9260208161525860019360ff8760701c166123d2565b019301613f31565b9260208161527660019360ff8760681c166123d2565b019301613f29565b9260208161529460019360ff8760601c166123d2565b019301613f21565b926020816152b260019360ff8760581c166123d2565b019301613f19565b926020816152d060019360ff8760501c166123d2565b019301613f11565b926020816152ee60019360ff8760481c166123d2565b019301613f09565b9260208161530c60019360ff8760401c166123d2565b019301613f01565b9260208161532a60019360ff8760381c166123d2565b019301613ef9565b9260208161534860019360ff8760301c166123d2565b019301613ef1565b9260208161536660019360ff8760281c166123d2565b019301613ee9565b9260208161538360019360ff87851c166123d2565b019301613ee1565b926020816153a160019360ff8760181c166123d2565b019301613ed9565b926020816153bf60019360ff8760101c166123d2565b019301613ed1565b926020816153dd60019360ff8760081c166123d2565b019301613ec9565b926020816153f860019360ff87166123d2565b019301613ec1565b91602091935061040060019161567b875461541e8360ff83166123d2565b61543086840160ff8360081c166123d2565b6154436040840160ff8360101c166123d2565b6154566060840160ff8360181c166123d2565b6154686080840160ff83891c166123d2565b61547b60a0840160ff8360281c166123d2565b61548e60c0840160ff8360301c166123d2565b6154a160e0840160ff8360381c166123d2565b6154b5610100840160ff8360401c166123d2565b6154c9610120840160ff8360481c166123d2565b6154dd610140840160ff8360501c166123d2565b6154f1610160840160ff8360581c166123d2565b615505610180840160ff8360601c166123d2565b6155196101a0840160ff8360681c166123d2565b61552d6101c0840160ff8360701c166123d2565b6155416101e0840160ff8360781c166123d2565b615555610200840160ff8360801c166123d2565b615569610220840160ff8360881c166123d2565b61557d610240840160ff8360901c166123d2565b615591610260840160ff8360981c166123d2565b6155a5610280840160ff8360a01c166123d2565b6155b96102a0840160ff8360a81c166123d2565b6155cd6102c0840160ff8360b01c166123d2565b6155e16102e0840160ff8360b81c166123d2565b6155f5610300840160ff8360c01c166123d2565b615609610320840160ff8360c81c166123d2565b61561d610340840160ff8360d01c166123d2565b615631610360840160ff8360d81c166123d2565b615645610380840160ff8360e01c166123d2565b6156596103a0840160ff8360e81c166123d2565b61566d6103c0840160ff8360f01c166123d2565b6103e083019060f81c6123d2565b019401920189929391613ea9565b9050613e60565b82613e62565b600261014052613e31565b60f01c81526020015f613dc7565b92602060019161ffff8560e01c168152019301613dc1565b92602060019161ffff8560d01c168152019301613db9565b92602060019161ffff8560c01c168152019301613db1565b92602060019161ffff8560b01c168152019301613da9565b92602060019161ffff8560a01c168152019301613da1565b92602060019161ffff8560901c168152019301613d99565b92602060019161ffff8560801c168152019301613d91565b92602060019161ffff8560701c168152019301613d89565b92602060019161ffff8560601c168152019301613d81565b92602060019161ffff8560501c168152019301613d79565b92602060019161ffff8560401c168152019301613d71565b92602060019161ffff8560301c168152019301613d69565b92602060019161ffff85831c168152019301613d61565b92602060019161ffff8560101c168152019301613d59565b92602060019161ffff85168152019301613d51565b926001610200601092865461ffff8116825261ffff81861c16602083015261ffff8160201c16604083015261ffff8160301c16606083015261ffff8160401c16608083015261ffff8160501c1660a083015261ffff8160601c1660c083015261ffff8160701c1660e083015261ffff8160801c1661010083015261ffff8160901c1661012083015261ffff8160a01c1661014083015261ffff8160b01c1661016083015261ffff8160c01c1661018083015261ffff8160d01c166101a083015261ffff8160e01c166101c083015260f01c6101e0820152019401920191613d2e565b905f602091828151910182855af115611424575f513d61594457506001600160a01b0381163b155b6159245750565b635274afe760e01b5f9081526001600160a01b0391909116600452602490fd5b6001141561591d565b60020b908160ff1d82810118620d89e88111615c675763ffffffff9192600182167001fffcb933bd6fad37aa2d162d1a59400102600160801b189160028116615c4b575b60048116615c2f575b60088116615c13575b60108116615bf7575b60208116615bdb575b60408116615bbf575b60808116615ba3575b6101008116615b87575b6102008116615b6b575b6104008116615b4f575b6108008116615b33575b6110008116615b17575b6120008116615afb575b6140008116615adf575b6180008116615ac3575b620100008116615aa7575b620200008116615a8c575b620400008116615a71575b6208000016615a58575b5f12615a50575b0160201c90565b5f1904615a49565b6b048a170391f7dc42444e8fa290910260801c90615a42565b6d2216e584f5fa1ea926041bedfe9890920260801c91615a38565b916e5d6af8dedb81196699c329225ee6040260801c91615a2d565b916f09aa508b5b7a84e1c677de54f3e99bc90260801c91615a22565b916f31be135f97d08fd981231505542fcfa60260801c91615a17565b916f70d869a156d2a1b890bb3df62baf32f70260801c91615a0d565b916fa9f746462d870fdf8a65dc1f90e061e50260801c91615a03565b916fd097f3bdfd2022b8845ad8f792aa58250260801c916159f9565b916fe7159475a2c29b7443b29c7fa6e889d90260801c916159ef565b916ff3392b0822b70005940c7a398e4b70f30260801c916159e5565b916ff987a7253ac413176f2b074cf7815e540260801c916159db565b916ffcbe86c7900a88aedcffc83b479aa3a40260801c916159d1565b916ffe5dee046a99a2a811c461f1969c30530260801c916159c7565b916fff2ea16466c96a3843ec78b326b528610260801c916159be565b916fff973b41fa98c081472e6896dfb254c00260801c916159b5565b916fffcb9843d60f6159c9db58835c9266440260801c916159ac565b916fffe5caca7e10e4e61c3624eaa0941cd00260801c916159a3565b916ffff2e50f5f656932ef12357cf3c7fdcc0260801c9161599a565b916ffff97272373d413259a46990580e213a0260801c91615991565b826345c3193d60e11b5f5260045260245ffd5b60405163095ea7b360e01b60208281019182526001600160a01b03851660248401526044830195909552929390925f90615cb78560648101612987565b84519082855af15f513d82615d18575b505015615cd357505050565b60405163095ea7b360e01b60208201526001600160a01b0390931660248401525f60448085019190915283526126379261172b90615d1260648261235b565b826158f5565b909150615d3557506001600160a01b0381163b15155b5f80615cc7565b600114615d2e565b613ae092615d6c9290916001600160a01b0380831690821611615d71575b90036001600160a01b031690615dc4565b615f17565b90615d5b565b613ae092615d6c929091906001600160a01b0380821690831611615dbe575b615dac6001600160a01b03828116908416615e4e565b9190036001600160a01b031691615e97565b90615d96565b90606082901b905f19600160601b8409928280851094039380850394858411156113f85714615e47578190600160601b900981805f03168092046002816003021880820260020302808202600203028082026002030280820260020302808202600203028091026002030293600183805f03040190848311900302920304170290565b5091500490565b81810291905f1982820991838084109303928084039384600160601b11156113f85714615e8e57600160601b910990828211900360a01b910360601c1790565b50505060601c90565b91818302915f19818509938380861095039480860395868511156113f85714615f0f579082910981805f03168092046002816003021880820260020302808202600203028082026002030280820260020302808202600203028091026002030293600183805f03040190848311900302920304170290565b505091500490565b906001600160801b038216809203615f2b57565b6393dafdf160e01b5f5260045ffdfe21d15f71483b597e8f0009e83b90b2117f6f98c185d7173857dddcae5eb8546a","linkReferences":{}},"methodIdentifiers":{"BASIS_POINTS()":"e1f1c4a7","MAX_LP_POSITIONS()":"52db242f","MAX_REWARD_PARTICIPANTS()":"14a7f403","collectRewards(address)":"5763dbd0","collectRewardsWithoutUnlock(address)":"86b0c83f","factory()":"c45a0155","feeLocker()":"70e9d244","feePreferences(address,uint256)":"da37c915","onERC721Received(address,address,uint256,bytes)":"150b7a02","owner()":"8da5cb5b","permit2()":"12261ee7","placeLiquidity((address,address[],address[],uint16[],int24[],int24[],uint16[],bytes),(address,address,int24,int24,bytes),(address,address,uint24,int24,address),uint256,address)":"ea289263","poolManager()":"dc4c90d3","positionManager()":"791b98bc","renounceOwnership()":"715018a6","supportsInterface(bytes4)":"01ffc9a7","tokenRewards(address)":"30bd3eeb","transferOwnership(address)":"f2fde38b","universalRouter()":"35a9e4df","updateFeePreference(address,uint256,uint8)":"8d4637bd","updateRewardAdmin(address,uint256,address)":"0150a986","updateRewardRecipient(address,uint256,address)":"911573b3","version()":"54fd4d50","withdrawERC20(address,address)":"9456fbcc","withdrawETH(address)":"690d8320"},"id":139}